:020000040000fa
:080000000002040000000000f2
:020000040000fa
:040008008803000069
:020000040000fa
:04000c00ca03000023
:020000040000fa
:040010000a040000de
:020000040000fa
:04001400a80300003d
:020000040000fa
:04001800ea030000f7
:020000040000fa
:04001c006404000078
:020000040000fa
:040020002a040000ae
:020000040000fa
:040024006404000070
:020000040000fa
:040028004c03000085
:020000040000fa
:04002c006404000068
:020000040000fa
:040030006404000064
:020000040000fa
:040034006404000060
:020000040000fa
:04003800640400005c
:020000040000fa
:04003c006404000058
:020000040000fa
:040040006404000054
:020000040000fa
:040044006404000050
:020000040000fa
:04004800640400004c
:020000040000fa
:04004c006404000048
:020000040000fa
:040050006404000044
:020000040000fa
:040054006404000040
:020000040000fa
:04005800640400003c
:020000040000fa
:04005c006404000038
:020000040000fa
:040060006404000034
:020000040000fa
:040064006a0300002b
:020000040000fa
:04006800640400002c
:020000040000fa
:04006c006404000028
:020000040000fa
:040070006404000024
:020000040000fa
:040074006404000020
:020000040000fa
:04007800640400001c
:020000040000fa
:04007c006404000018
:020000040000fa
:040080006404000014
:020000040000fa
:040084006404000010
:020000040000fa
:04008800640400000c
:020000040000fa
:04008c006404000008
:020000040000fa
:040090006404000004
:020000040000fa
:040094006404000000
:020000040000fa
:0400980064040000fc
:020000040000fa
:04009c0064040000f8
:020000040000fa
:0400a00064040000f4
:020000040000fa
:0400a40064040000f0
:020000040000fa
:0400a80064040000ec
:020000040000fa
:0400ac0064040000e8
:020000040000fa
:0400b00064040000e4
:020000040000fa
:0400b40064040000e0
:020000040000fa
:0400b80064040000dc
:020000040000fa
:0400bc0064040000d8
:020000040000fa
:0400c00064040000d4
:020000040000fa
:0400c40064040000d0
:020000040000fa
:0400c80064040000cc
:020000040000fa
:0400cc0064040000c8
:020000040000fa
:0400d00064040000c4
:020000040000fa
:0400d40064040000c0
:020000040000fa
:0400d80064040000bc
:020000040000fa
:0400dc0064040000b8
:020000040000fa
:0400e00064040000b4
:020000040000fa
:0400e40064040000b0
:020000040000fa
:0400e80064040000ac
:020000040000fa
:0400ec0064040000a8
:020000040000fa
:0400f00064040000a4
:020000040000fa
:0400f40064040000a0
:020000040000fa
:0400f800640400009c
:020000040000fa
:0400fc006404000098
:020000040000fa
:040100006404000093
:020000040000fa
:04010400640400008f
:020000040000fa
:04010800640400008b
:020000040000fa
:04010c006404000087
:020000040000fa
:040110006404000083
:020000040000fa
:04011400640400007f
:020000040000fa
:04011800640400007b
:020000040000fa
:04011c006404000077
:020000040000fa
:040120006404000073
:020000040000fa
:04012400640400006f
:020000040000fa
:04012800640400006b
:020000040000fa
:04012c006404000067
:020000040000fa
:040130006404000063
:020000040000fa
:04013400640400005f
:020000040000fa
:04013800640400005b
:020000040000fa
:04013c006404000057
:020000040000fa
:040140006404000053
:020000040000fa
:04014400640400004f
:020000040000fa
:04014800640400004b
:020000040000fa
:04014c006404000047
:020000040000fa
:040150006404000043
:020000040000fa
:04015400640400003f
:020000040000fa
:040158000a03000096
:020000040000fa
:04015c006404000037
:020000040000fa
:040160006404000033
:020000040000fa
:04016400640400002f
:020000040000fa
:04016800640400002b
:020000040000fa
:04016c006404000027
:020000040000fa
:040170006404000023
:020000040000fa
:04017400640400001f
:020000040000fa
:04017800640400001b
:020000040000fa
:04017c006404000017
:020000040000fa
:040180006404000013
:020000040000fa
:04018400640400000f
:020000040000fa
:04018800640400000b
:020000040000fa
:04018c006404000007
:020000040000fa
:040190006404000003
:020000040000fa
:0401940064040000ff
:020000040000fa
:0401980064040000fb
:020000040000fa
:04019c0064040000f7
:020000040000fa
:0401a00064040000f3
:020000040000fa
:0401a40064040000ef
:020000040000fa
:0401a80064040000eb
:020000040000fa
:0401ac0064040000e7
:020000040000fa
:0401b00064040000e3
:020000040000fa
:0401b40064040000df
:020000040000fa
:0401b80064040000db
:020000040000fa
:0401bc0064040000d7
:020000040000fa
:0401c00064040000d3
:020000040000fa
:0401c40064040000cf
:020000040000fa
:0401c80064040000cb
:020000040000fa
:0401cc0064040000c7
:020000040000fa
:0401d00064040000c3
:020000040000fa
:0401d40064040000bf
:020000040000fa
:0401d80064040000bb
:020000040000fa
:0401dc0064040000b7
:020000040000fa
:0401e00064040000b3
:020000040000fa
:0401e40064040000af
:020000040000fa
:0401e80064040000ab
:020000040000fa
:0401ec0064040000a7
:020000040000fa
:0401f00064040000a3
:020000040000fa
:0401f400640400009f
:020000040000fa
:0401f800640400009b
:020000040000fa
:0401fc006404000097
:020000040000fa
:040200006404000092
:020000040000fa
:04020400640400008e
:020000040000fa
:04020800640400008a
:020000040000fa
:04020c006404000086
:020000040000fa
:040210006404000082
:020000040000fa
:04021400640400007e
:020000040000fa
:04021800640400007a
:020000040000fa
:04021c006404000076
:020000040000fa
:040220006404000072
:020000040000fa
:04022400640400006e
:020000040000fa
:04022800640400006a
:020000040000fa
:04022c006404000066
:020000040000fa
:040230006404000062
:020000040000fa
:04023400640400005e
:020000040000fa
:04023800640400005a
:020000040000fa
:04023c006404000056
:020000040000fa
:040240006404000052
:020000040000fa
:04024400640400004e
:020000040000fa
:04024800640400004a
:020000040000fa
:04024c006404000046
:020000040000fa
:040250006404000042
:020000040000fa
:04025400640400003e
:020000040000fa
:04025800640400003a
:020000040000fa
:04025c006404000036
:020000040000fa
:040260006404000032
:020000040000fa
:04026400640400002e
:020000040000fa
:04026800640400002a
:020000040000fa
:04026c006404000026
:020000040000fa
:040270006404000022
:020000040000fa
:04027400640400001e
:020000040000fa
:04027800640400001a
:020000040000fa
:04027c006404000016
:020000040000fa
:040280006404000012
:020000040000fa
:04028400640400000e
:020000040000fa
:04028800640400000a
:020000040000fa
:04028c006404000006
:020000040000fa
:040290006404000002
:020000040000fa
:0402940064040000fe
:020000040000fa
:0402980064040000fa
:020000040000fa
:04029c0064040000f6
:020000040000fa
:0402a00064040000f2
:020000040000fa
:0402a40064040000ee
:020000040000fa
:0402a80064040000ea
:020000040000fa
:0402ac0064040000e6
:020000040000fa
:0402b00064040000e2
:020000040000fa
:0402b40064040000de
:020000040000fa
:0402b80064040000da
:020000040000fa
:0402bc0064040000d6
:020000040000fa
:0402c00064040000d2
:020000040000fa
:0402c40064040000ce
:020000040000fa
:0402c80064040000ca
:020000040000fa
:0402cc0064040000c6
:020000040000fa
:0402d00064040000c2
:020000040000fa
:0402d40064040000be
:020000040000fa
:0402d80064040000ba
:020000040000fa
:0402dc0064040000b6
:020000040000fa
:0402e00064040000b2
:020000040000fa
:0402e40064040000ae
:020000040000fa
:0402e80064040000aa
:020000040000fa
:0402ec0064040000a6
:020000040000fa
:0402f00064040000a2
:020000040000fa
:0402f400640400009e
:020000040000fa
:0402f800640400009a
:020000040000fa
:0402fc006404000096
:020000040000fa
:040300006404000091
:020000040000fa
:04030400640400008d
:020000040000fa
:040308006404000089
:020000040000fa
:04030c006404000085
:020000040000fa
:040310006404000081
:020000040000fa
:04031400640400007d
:020000040000fa
:040318006404000079
:020000040000fa
:04031c006404000075
:020000040000fa
:040320006404000071
:020000040000fa
:04032400640400006d
:020000040000fa
:040328006404000069
:020000040000fa
:04032c006404000065
:020000040000fa
:040330006404000061
:020000040000fa
:04033400640400005d
:020000040000fa
:10040000cf0221000eff26000e0188000000000030
:10041000000020000000e000020032000001200087
:100420002002880014000700290107000000e000f6
:1004300003003a0060b120000100200002003700f4
:100440000000200001002000810f70000100320038
:100450000f000700000020000000e0000200320052
:100460000000020000000000b207020000000000cf
:100470000040da000000fe00200020000000e00044
:1004800002003200100020009001880000000600e9
:10049000a1028800800478000000eb001f003700f4
:1004a000e284440054a0b4009905ba00e2844400f8
:1004b00054a0b4009906ba00e284440054a0b400e9
:1004c0000006eb00476fde00fd07b200ae018800ba
:1004d000636ce10003003a000ad801000000eb0061
:1004e0000e003700606ce10008003a00004deb00a0
:1004f0000a05e800020039003420ec000af0a000f0
:100500008b05e900f9ff3e00040037006168e10057
:10051000010032000086eb000b00070019c7ba008b
:100520001905ba000e04e00003003a000a00e000da
:10053000dbff3a0000000600fe07b200ae028800b2
:100540008a047800f5ff37000cd0a300e20f4d00bd
:100550001c003b0089027800354dba000a05e8000e
:10056000020039003420ec000af0a0008b05e900fd
:100570000f003200254dba000a05e80002003900dc
:100580003420ec000af0a0008b05e90008003200de
:100590000c00e0000600320015cdba000a05e800a4
:1005a000020039003420ec000af0a0008b05e900bd
:1005b0008984e80054a0b4000b00e000e2ff3a0098
:1005c000000006009902ba00055d78008b05e9007d
:1005d000f7ff3200c82ade00055d78008b05e900d0
:1005e000f3ff32000c00e000f1ff320019ddba0029
:1005f000eeff3700c009040000000000c609040037
:1006000000000000740704000000000092070400ce
:10061000000000003600f8000000fa0041408000b1
:1006200000002100008060000000e00017003200a0
:100630003174800000082000008060000000e000ad
:1006400006003200008080000000e000020032005e
:10065000008080000000010086eea9003174800057
:1006600000102000008060000000e0000600320062
:10067000108080000000e000020032001080800046
:1006800000000100870ea9000988a9000080fa0077
:100690003600f900004006003600f800809fbe00da
:1006a000829fbe00849fbe00869fbe000000fa00ad
:1006b0008c0307000008a9000080fa004f03be0069
:1006c0004f02be004f01be004f00be003600f900d1
:1006d000004006003600f800809fbe00829fbe00ea
:1006e000849fbe00869fbe000000fa0085030700bd
:1006f00001e8a9000080fa004f03be004f02be00cf
:100700004f01be004f00be003600f9000040060059
:100710003600f800809fbe00829fbe00849fbe000e
:10072000869fbe000000fa00c028a9000000eb0070
:10073000dd0307000080fa004f03be004f02be0039
:100740004f01be004f00be003600f9000040060019
:100750003600f800809fbe00829fbe00849fbe00ce
:10076000869fbe000000fa00d4030700c048a9001d
:1007700010002000cc0307000080fa004f03be00e9
:100780004f02be004f01be004f00be003600f90010
:10079000004006003600f800809fbe00829fbe0029
:1007a000849fbe00869fbe000000fa00c068a900ba
:1007b00020002000bc0307000080fa004f03be00a9
:1007c0004f02be004f01be004f00be003600f900d0
:1007d000004006003600f800809fbe00829fbe00e9
:1007e000849fbe00869fbe000000fa00c088a9005a
:1007f00030002000ac0307000080fa004f03be0069
:100800004f02be004f01be004f00be003600f9008f
:10081000004006003600f800809fbe00829fbe00a8
:10082000849fbe00869fbe000000fa00c608a90093
:10083000700020009c0307000080fa004f03be00f8
:100840004f02be004f01be004f00be003600f9004f
:10085000004006003600f800809fbe00829fbe0068
:10086000849fbe00869fbe000000fa0021468000e3
:1008700000102000008060000000e0000300320053
:10088000c508a900c000200087030700204680009b
:10089000700060000000e00003003200c488a9007e
:1008a000a000200080030700204680006100600057
:1008b0000000e00003003200c408a900b0002000de
:1008c00079030700ffff37000040da000000fe0058
:0408d000000005001f
:020000040000fa
:1008d4000000fa00c3e8a8000000000000000000c7
:1008e4000080fa00000006000400fa002047980087
:1008f4000000eb00000f7800120037002e4090003b
:100904008080fb00720020001e0051000088de0081
:1009140061006000004078000004e0000200320042
:100924005a4ea800010037005a4ea9005a0ea800da
:1009340080022000010020004c0307005a0ea90089
:100944001e0fe8001e007800e70f5000ebff340094
:100954000080fa00000006000000fa005a2ea800e9
:100964008002200001002000400307005a2ea90045
:100974000080fa00000006000200fa00004f780030
:100984001e407800d8ff0700f3ff07000080fa003c
:10099400000006000000fa000040eb00f6ff07002c
:1009a40000502300c10020003003070000c0eb000a
:1009b400f1ff070000502300c10020002b030700b3
:1009c4000080fa00000006000400fa000040eb007a
:1009d400004f78000040eb001047980010003700eb
:1009e4001e4090000080fb00110020000008dd0084
:1009f400804078001e40780000c07000004f7800ee
:100a04001e407800dcff070000502300c1002000d6
:100a1400160307001e4090000040e80010479800ad
:100a24001e409000e74f5000edff36000040eb0001
:100a340020479800110037002e4090000080fb00f2
:100a4400110020000008dd000040780080c0ea00aa
:100a54001e40780000c06000004f78001e407800ff
:100a6400c5ff070000502300c1002000ff0207005b
:100a74002e4090000040e800204798002e4090004f
:100a8400e74f5000ecff36000080fa00000006003b
:100a94000400fa000040eb00004f78000040eb0037
:100aa40010479800110037001e4090000080fb00a2
:100ab40067001000110020000008dd00804078006d
:100ac4001e40780000c07000004f78001e4078007f
:100ad400a9ff070000502300c1002000e302070023
:100ae4001e4090000040e800104798001e4090000f
:100af400e74f5000ecff36000040eb002047980021
:100b0400120037002e4090000080fb0067001000a8
:100b1400110020000008dd000040780080c0ea00d9
:100b24001e40780000c06000004f78001e4078002e
:100b340091ff070000502300c1002000cb020700f2
:100b44002e4090000040e800204798002e4090007e
:100b5400e74f5000ebff36000080fa00000006006b
:100b64000200fa000040eb00004f78000f0037004d
:100b74001e80fb00110020000008dd00804078008a
:100b84001e80fb0067001000120020000010dd0032
:100b94000040780000c0700077ff070000a8210023
:100ba40061002000b10207001e4fe8001e407800db
:100bb400e34f5000eeff36000040eb001047980072
:100bc400140037001e4090000080fb00110020003c
:100bd4000008dd00804078001e4090000080fb008b
:100be40067001000120020000010dd0000407800b3
:100bf40000c0700000c0ea005fff070000a82100e9
:100c040061002000990207001e4090000040e800a7
:100c1400104798001e409000e34f5000e9ff360053
:100c24000080fa00000006000200fa000040eb0019
:100c3400004f7800100037001e80fb006300100096
:100c4400110020000008dd00804078001e80fb00b9
:100c540064004000120020000010dd000040780015
:100c640000c0700044ff070000a8210061002000bc
:100c74007e0207001e4fe8001e407800e34f50003c
:100c8400edff36000040eb001047980015003700d8
:100c94001e4090000080fb00630010001100200043
:100ca4000008dd00804078001e4090000080fb00ba
:100cb40064004000120020000010dd0000407800b5
:100cc40000c0700000c0ea002bff070000a821004c
:100cd40061002000650207001e4090000040e8000b
:100ce400104798001e409000e34f5000e8ff360084
:100cf4000080fa00000006000000fa00a0cab30059
:100d04001dff070000a82100610020005702070012
:100d140050c5b30018ff070000502300c100200095
:100d2400520207000080fa00000006000200fa00e8
:100d340010c0b300004f78000040eb00104798004b
:100d4400100037001e4090000080fb0011002000be
:100d54000008dd00804078001e40780000c070006c
:100d6400004f78001e40780003ff07000050230066
:100d7400c10020003d0207001e4090000040e80032
:100d8400104798001e409000e74f5000edff3600da
:100d94000080fa00000006000200fa0000c8b30058
:100da400004f78000040eb00104798001000370017
:100db4001e4090000080fb00010820000088de0037
:100dc400804078001e40780000c07000004f78001a
:100dd4001e407800e8fe070000502300c1002000f8
:100de400220207001e4090000040e80010479800cf
:100df4001e409000e74f5000edff36000080fa00df
:100e0400000006000200fa00e0cfb300004f7800b3
:100e14000040eb0010479800110037001e4090007e
:100e24000080fb00110020000008dd000040780075
:100e340080c0ea001e40780000c06000004f7800c7
:100e44001e407800ccfe070000502300c1002000a3
:100e5400060207001e4090000040e800104798007a
:100e64001e409000e74f5000ecff36000080fa006f
:100e7400000006000200fa00f0c7b300004f78003b
:100e84000040eb0010479800110037001e4090000e
:100e94000080fb00010820000088de00004078008c
:100ea40080c0ea001e40780000c06000004f780057
:100eb4001e407800b0fe070000502300c10020004f
:100ec400ea0107001e4090000040e8001047980027
:100ed4001e409000e74f5000ecff36000080fa00ff
:100ee400000006000000fa00a17380000008200042
:100ef400008060000000e000070032000ad0bf005c
:100f04000040e8000af0b7000ad0bf00eb4f5000e1
:100f140001003a000a70ef000080fa0000000600a9
:100f24000000fa00a173800000102000008060001f
:100f34000000e000080032000ad0bf000040e900d1
:100f44000af0b7000ad0bf000004e00002003a0033
:100f5400a0c0b3000af0b7000080fa000000060049
:100f64000000fa009401070059fe07007801070009
:100f740040772000070107002079200013010700b3
:100f84000a70ef000ad0bf000080fb006101b900c5
:100f94000080eb008080eb0002004000838048006a
:100fa4009200200003002000820f5000838f58001d
:100fb4001f003e0000060100090037000a00370048
:100fc4000b0037000c0037000d0037000e0037000f
:100fd4000f003700100037001100370012003700ef
:100fe4006cfe07001300370077fe0700110037007e
:100ff400a7fe07000f003700d9fe07000d003700d9
:1010040009ff07000b0037003bff0700090037000a
:1010140046ff0700070037005fff070005003700a1
:1010240078ff07000300370092ff07000100370034
:1010340000000000d3ff37000000fa00007c8000ad
:101044000080fa00000006000200fa00faff070020
:10105400000f78001e007800240007000004e00060
:101064000200320000002800710007001e00780012
:101074002a0007000004e0000200320000002400ff
:101084006b0007001e007800320007000004e00037
:101094000200320000202000650007001e007800d6
:1010a4003a0007000004e0000200320000082000bb
:1010b4005f0007001e007800420007000004e00003
:1010c4000200320000042000590007001e007800ce
:1010d4004a0007000004e000020032000001200082
:1010e400530007000080fa00000006000400fa0024
:1010f400100798000040eb00004f78001e0090009d
:101104000000e00002003d0010c0b300004f780072
:101114001e4078000080fa00000006000400fa0077
:10112400100798000040eb00004f78009e009000ec
:1011340000002400008060000000e0000200320093
:1011440010c0b300004f78001e4078000080fa0001
:10115400000006000400fa00100798000040eb00ad
:10116400004f78009e009000002020000080600066
:101174000000e0000200320010c0b300004f78000d
:101184001e4078000080fa00000006000400fa0007
:10119400100798000040eb00004f78009e0090007c
:1011a40000082000008060000000e000020032001f
:1011b40010c0b300004f78001e4078000080fa0091
:1011c400000006000400fa00100798000040eb003d
:1011d400004f78009e009000000420000080600012
:1011e4000000e0000200320010c0b300004f78009d
:1011f4001e4078000080fa00000006000400fa0097
:10120400100798000040eb00004f78001e0090008b
:10121400700060000000e0000200320010c0b30063
:10122400004f78001e4078000080fa00000006009d
:101234000200fa00000f78009e80ea00007c800023
:1012440000806000007c88000080fa000000060036
:101254000000fa00802fef000080fa000000060072
:101264000000fa00062eef00222eef003e2eef00c3
:101274005a2eef00762eef00f00120001070880047
:10128400d0ff2f00f07088000080eb00d071880040
:1012940080f72f00b07288000080eb009073880004
:1012a4000c2eef00282eef00442eef00602eef00ee
:1012b4007c2eef000a2eef00262eef00422eef00c8
:1012c400800f2000f072880000002600d073880090
:1012d400082eef00242eef00402eef005c2eef00ce
:1012e400782eef00f00120000070880090092000a3
:1012f400e0708800f00c2000c071880000c022005b
:10130400a0728800f0002000807388000000eb00c9
:1013140051052000b1468800a10a2000b14688008a
:1013240000688800a0c3b30005edb700008020006a
:1013340051052000b1468800a10a2000b14688006a
:101344000068880080eea800810ea80086eea9003f
:10135400870ea9007f6ea8007feea800009c2000e5
:101364000c000700609c2000180007000988a900f1
:101374002988a8000080fa00000006000000fa0096
:101384000080fa00000006000000fa000080fa0065
:10139400000006000200fa00000f78002988a90066
:1013a4009e007800018088002988a8000080fa0047
:1013b400000006000200fa00000f78001e0078000a
:1013c400f4ff07000080fa00000006000200fa00a3
:1013d400000f78002988a9009e00780011808800f9
:1013e4002988a8000080fa00000006000200fa0024
:1013f400000f78001e007800f4ff07000080fa0058
:10140400000006000000fa0010002300307c880071
:1014140060092000407c88008c2fef00100420001d
:10142400507c880010102000707c88006009200027
:10143400807c880010042000907c88009a2fef00a4
:10144400b82fef00ba2fef00be2fef00002def00f2
:10145400a02fef00a42fef00a62fef00a82fef007e
:10146400aa2fef00ae2fef00b02fef00b22fef0046
:101474007200200080072000a109200053f82000fa
:101484008049780081497800824978000001eb00a6
:10149400600420007105200043f820008049780092
:1014a40081497800824978000080fa000000060033
:1014b4000000fa00707c8000ee800a00000000004a
:1014c4000080fb0000f0a7000000ea000000ea0032
:1014d4004f00de00004078000080fa0000000600a3
:1014e4000000fa00208080000000e00002003200ca
:1014f40020808000000001000080fa000000060047
:101504000000fa00308080000000e0000200320099
:1015140030808000000001000080fa000000060016
:101524000200fa00000f78009e00780021808800f5
:101534000080fa00000006000200fa00000f7800a4
:101544001e007800308088000080fa000000060049
:101554000000fa000008a900c208a9002008a80099
:1015640001e8a900c228a90021e8a8000430ef007e
:101574000630ef000080fa00000006000200fa00c6
:10158400000f780021028000200f200000806000fe
:101594001e007000200288000080fa00000006008f
:1015a4000000fa00c3e8a8000000000000000000ea
:1015b4000080fa00000006000000fa0028ff07007f
:1015c40090ff070006000700e1ff0700f4ff070093
:1015d40000022000e9ff07000080fa000000060076
:1015e4000000fa000142800080ff2f0000806000ac
:1015f4000000a0000042880031428000f0ff280073
:101604000080600000c0a0003042880031438000a8
:1016140080ff2f00008060000000a000304388009d
:081624000080fa00000006003e
:020000040000fa
:10162c000010000004000000800000000410000006
:10163c0004000000800000000c10000020000000de
:10164c008000000008100000020000008200000072
:10165c00ffff00000a1000000200000080000000e4
:04166c00000000007a
:020000040000fa
:10167000f03fb1000180b10006003500ee03090023
:1016800000000000403fb1000180b100fbff3d00c1
:101690001000b000203fb0000200350000800900bb
:0816a00000000000000006003c
:020000040000fa
:1016a8000200fa00000f78009e0078004180880050
:1016b800ffff37000000fa00c00021008007780013
:1016c80040022100000188000080fa0000000600a6
:020000040000fa
:020000040005f5
:047e0000ffffff0081
:020000040000fa
:020000040005f5
:047e2000ffffff0061
:020000040000fa
:020000040005f5
:047e30007fffff00d1
:020000040000fa
:020000040005f5
:047e3800bfffff0089
:020000040000fa
:020000040005f5
:047e40007f7fff0041
:020000040000fa
:020000040005f5
:047e4800ffffff0039
:020000040000fa
:020000040005f5
:047e5000dfffff0051
:020000040000fa
:020000040005f5
:047e58000000ff0027
:020000040000fa
:020000040005f5
:047e60000000ff001f
:020000040000fa
:020000040005f5
:047e68000000ff0017
:020000040000fa
:020000040005f5
:047e70000000ff000f
:020000040000fa
:020000040005f5
:047e7800ffffff0009
:020000040000fa
:020000040005f5
:047e8000fffcff0004
:020000040000fa
:020000040005f5
:047e8800f8ffff0000
:020000040000fa
:020000040005f5
:047ff800ffffff0088
:020000040000fa
:020000040100f9
:04300000ffffff00cf
:00000001FF
